:100000000C9434000C9470000C9470000C947000EC
:100010000C9470000C9470000C9462000C947000AE
:100020000C9470000C9470000C9470000C94700090
:100030000C9470000C9470000C9470000C94700080
:100040000C947B000C9470000C94BA000C9470001B
:100050000C9470000C9470000C9470000C94700060
:100060000C9470000C9470001124A0E0B3E0ADBFBC
:10007000BEBF0F92A0E0B3E0C0E0D3E0E0E7F3E062
:10008000AC17BD0719F005900D92FACF0E940E0132
:100090000E9418010E946001AA1BBB1B51E1881F2E
:1000A000991F5A9541F0AA1FBB1FA617B707B8F3AF
:1000B000A61BB70BF4CF80959095682F792F8A2FC8
:1000C0009B2F08950F930027A89504BF009160000F
:1000D0000861009360000027009360000F9118955D
:1000E0008895FECFFA01DC01E115F10519F06D9359
:1000F0003197FACF08950F920FB60F922F933F9337
:100100004F935F936F937F938F939F938091260379
:1001100090912703209128033091290340912A03CD
:1001200050912B0360912C0370912D038058914CBA
:100130002F4F3F4F4F4F5F4F6F4F7F4F50932B03CA
:1001400040932A0370932D0360932C03909327030D
:100150008093260330932903209328039F918F9146
:100160007F916F915F914F913F912F910F900FBEB3
:100170000F9018950F920FB60F922F938F939F9316
:10018000AF93BF938091C6009091C0009C71903056
:10019000A1F49091200320912103921B903269F0E9
:1001A00090912003939590932003909120039F7149
:1001B000A92FBB27A050BD4F8C93BF91AF919F91AA
:1001C0008F912F910F900FBE0F9018950F931F9343
:1001D0000EE213E080E299E0801B910B61E270E097
:1001E0000E944C00AB0180E099E0841B950B90933A
:1001F0002303809322039C01201B310B3695279506
:10020000369527953695279530932503209324031B
:10021000612D0E9472001F910F910895A0E0B3E03C
:100220008EE293E0A817B90711F01D92FBCF089555
:100230008091C00082608093C0001092C5008FEC56
:100240008093C40088E98093C10086E08093C20057
:1002500080E090E090932D0380932C0390932B03E8
:1002600080932A0390932903809328039093270374
:100270008093260380916E00887F80936E0016BC69
:100280008FEF87BD83E084BD81E085BD80916E00E6
:10029000816080936E008FB7F89420912C03309189
:1002A0002D0320912A0330912B03209128033091B4
:1002B000290320912603309127038FBF7894089556
:1002C0000E94E6000E94AF01CF92DF92EF92FF9270
:1002D0000F931F93EFB7F89480912C0390912D0307
:1002E00020912A0330912B03409128035091290338
:1002F0006091260370912703EFBF60507C464A4C03
:1003000058482F4F3F4F8F4F9F4F8895EFB7F89426
:10031000A0912C03B0912D0300912A0310912B037F
:10032000E0902803F0902903C0902603D090270383
:10033000EFBFE1E0C616D706E406F506020713078D
:10034000A807B9070CF0E12DE170E03009F0DDCF2E
:100350001F910F91FF90EF90DF90CF900895549AE6
:100360005C9A0E9464015C980E946401F9CF0000CD
:00000001FF
